:100000000C9463000C948B000C948B000C948B006C
:100010000C948B000C948B000C948B000C948B0034
:100020000C948B000C948B000C948B000C94960613
:100030000C948B000C948B000C948B000C948B0014
:100040000C94F4050C948B000C9464060C943E06FE
:100050000C948B000C948B000C948B000C948B00F4
:100060000C948B000C948B000000000024002700EF
:100070002A0000000000250028002B0000000000DE
:1000800023002600290004040404040404040202DA
:100090000202020203030303030301020408102007
:1000A0004080010204081020010204081020000012
:1000B0000008000201000003040700000000000027
:1000C00000009C076A0A11241FBECFEFD8E0DEBFF4
:1000D000CDBF11E0A0E0B1E0E8E9FAE102C005908F
:1000E0000D92AC35B107D9F722E0ACE5B1E001C023
:1000F0001D92AF36B207E1F710E0C2E6D0E004C0CF
:100100002197FE010E94340BC136D107C9F70E9426
:100110005E080C943F0D0C940000CF92DF92EF929A
:10012000FF92DC01A03282E0B8070CF03EC0B7FDC0
:1001300006C0A53BB1052CF0A4EBB0E002C0A0E0E6
:10014000B0E080912B0228E830E06901C81AD1089C
:1001500087FDD394CC0CDD1CCC0CDD1C0D2C000CCD
:10016000EE08FF0880912C0228E532E0281B3109B7
:1001700087FD3395220F331F220F331FA901330F41
:10018000660B770B9A01AB012C193D094E095F09EB
:100190000E94B80A24EB30E040E050E00E948E0A52
:1001A000C20ED31EE41EF51ED60190912A029C3089
:1001B00098F580912B0248E850E0481B510987FDD3
:1001C0005395440F551F440F551FA417B5078CF0C6
:1001D00080912C0228E532E0281B310987FD3395F8
:1001E000220F331F220F331FAD012A173B070CF4D8
:1001F000A90142505109440F551F2FB7F894892F78
:1002000090E0FC01EE0FFF1F8E0F9F1FFC01EB5FC4
:10021000FD4F528341832FBFFF90EF90DF90CF902F
:100220000895833081F028F4813099F08230A1F074
:1002300008958730A9F08830B9F08430D1F48091E6
:1002400080008F7D03C0809180008F778093800035
:10025000089584B58F7702C084B58F7D84BD0895DD
:100260008091B0008F7703C08091B0008F7D809324
:10027000B0000895CF93DF93282F30E0F901E255C5
:10028000FF4F8491F901E656FF4FD491F901EA57E7
:10029000FF4FC491CC2391F081110E941101EC2FEA
:1002A000F0E0EE0FFF1FE458FF4FA591B491EC91E1
:1002B000ED2381E090E021F480E002C080E090E056
:1002C000DF91CF9108951F93CF93DF93282F30E0D4
:1002D000F901E255FF4F8491F901E656FF4FD491A1
:1002E000F901EA57FF4FC491CC23C1F0162F8111B9
:1002F0000E941101EC2FF0E0EE0FFF1FEE58FF4FB0
:10030000A591B4919FB7F894111104C08C91D09528
:10031000D82302C0EC91DE2BDC939FBFDF91CF91FD
:100320001F910895CF93DF9360E08CE00E946301FA
:1003300060E088E00E946301C7E0D0E060E084E014
:100340000E9463018091660190E00C2E02C0959599
:1003500087950A94E2F780FF02C061E001C060E087
:1003600088E00E94630161E084E00E9463012197BC
:1003700028F761E08CE0DF91CF910C946301CF937B
:10038000DF9390E0FC01E656FF4F2491FC01EA5711
:10039000FF4F8491882361F190E0880F991FFC0141
:1003A000E859FF4FC591D491FC01EE58FF4FA5913C
:1003B000B491611109C09FB7F89488812095822378
:1003C0008883EC912E230BC0623061F49FB7F894C0
:1003D0008881322F309583238883EC912E2B2C93A8
:1003E0009FBF06C08FB7F894E8812E2B28838FBF5C
:1003F000DF91CF910895CF93DF93C62FFC016083E7
:10040000D1E0D18361E08CE00E94BF0161E087E030
:100410000E94BF0161E088E00E94BF0161E084E0CA
:100420000E94BF01109266010E94920160E087E085
:100430000E946301C230F1F080F4C130A9F50E943E
:1004400092018091B00083688093B000C093B100A6
:100450001092B30061E08BE023C0C330C9F0C43018
:1004600019F50E94920184B5836284BD18BC61E0D5
:1004700085E016C00E9492018091B0008362809353
:10048000B000D093B1001092B40061E083E008C0E6
:100490000E94920184B5836884BD17BC61E086E048
:1004A000DF91CF910C94BF01DF91CF9108953FB7B9
:1004B000F8948091620190916301A0916401B091E0
:1004C000650126B5A89B05C02F3F19F00196A11D17
:1004D000B11D3FBFBA2FA92F982F8827820F911DDA
:1004E000A11DB11DBC01CD0142E0660F771F881F21
:1004F000991F4A95D1F70895CF92DF92EF92FF921C
:100500000F931F93CF93DF936C017A018B01C0E0AF
:10051000D0E0CE15DF0581F0D8016D918D01D601B7
:10052000ED91FC910190F081E02DC6010995892B98
:1005300011F02196EECF7E01C701DF91CF911F917F
:100540000F91FF90EF90DF90CF900895089580E095
:1005500090E00895FC01538D448D252F30E0842FC9
:1005600090E0821B930B541710F0CF9608950197DB
:100570000895FC01918D828D981761F0828DDF01C5
:10058000A80FB11D5D968C91928D9F5F9F73928F86
:1005900090E008958FEF9FEF0895FC01918D828D7B
:1005A000981731F0828DE80FF11D858D90E0089548
:1005B0008FEF9FEF0895FC01918D228D892F90E0A0
:1005C000805C9F4F821B91098F739927089587E65E
:1005D00091E00E94DB0221E0892B09F420E0822FC8
:1005E0000895FC01848DDF01A80FB11DA35ABF4FF0
:1005F0002C91848D90E001968F739927848FA68922
:10060000B7892C93A089B1898C91837080648C9375
:10061000938D848D981306C00288F389E02D808124
:100620008F7D80830895EF92FF920F931F93CF9356
:10063000DF93EC0181E0888F9B8D8C8D981305C032
:10064000E889F989808185FD26C0F62E0B8D10E0A2
:100650000F5F1F4F0F731127E02E8C8DE8120CC017
:100660000FB607FCFACFE889F989808185FFF5CFBD
:10067000CE010E94F102F1CF8B8DFE01E80FF11D3A
:10068000E35AFF4FF0829FB7F8940B8FEA89FB89FA
:10069000808180620AC09FB7F894EE89FF896083E9
:1006A000E889F98980818370806480839FBF81E0BD
:1006B00090E0DF91CF911F910F91FF90EF900895FF
:1006C000CF93DF93EC01888D8823C9F0EA89FB89F9
:1006D000808185FD05C0A889B9898C9186FD0FC0F0
:1006E0000FB607FCF5CF808185FFF2CFA889B989C5
:1006F0008C9185FFEDCFCE010E94F102E7CFDF9113
:10070000CF91089580E090E0892B29F00E94E702C4
:1007100081110C9400000895FC018081823061F009
:1007200018F4813031F00895833049F0843049F075
:1007300008956093B30008956093B400089567BD71
:10074000089568BD0895FC018081823059F018F445
:100750008130D9F00895833009F499C0843009F4C8
:1007600099C00895633009F464C028F4613051F0F1
:10077000623051F10895643009F466C0653009F4BF
:1007800068C0089544E021E009C0633009F495C0D1
:1007900008F062C06130D9F443E022E081E090E0EB
:1007A000FC0102C0EE0FFF1F2A95E2F79F01209582
:1007B00030916601232301C0880F4A95EAF7822B06
:1007C000809366010C94920124E091E005C06230B0
:1007D00009F0ADC023E092E0835030916601823091
:1007E00088F461E070E0AB0101C0440F9A95EAF72C
:1007F0004095342301C0660F2A95EAF7632B609376
:100800006601E0CF41E050E0BA0101C0660F9A9561
:10081000EAF7632B01C0440F2A95EAF74095462377
:1008200040936601CFCF813009F447C0823009F090
:100830007FC0809166018D7F8061C2CF813009F4D5
:100840006DC0823009F074C0809166018F7E826035
:10085000B7CF24E091E008C0643009F45FC0653090
:1008600009F066C023E092E041E050E0BA0102C026
:10087000660F771F9A95E2F7CB0101C0440F2A95C6
:10088000EAF7842B809590916601892399CF27E020
:1008900095E002C026E090E06330A1F4833029F4B3
:1008A000809166018F7D80688BCF843009F0BBCF4B
:1008B000809166018F7B816083CF80916601877F05
:1008C00084607ECF6430C8F4613099F441E050E038
:1008D000BA0102C0660F771F9A95E2F7CB0190919B
:1008E0006601892B01C0440F2A95EAF740954823F9
:1008F00097CF623009F470CF08956430A1F483304B
:1009000029F4809166018F7780625ACF843009F094
:1009100095CF809166018E7F806452CF8091660171
:100920008B7F88604DCF653009F49ECF0895089580
:10093000089561E089E392E00E94A30361E08BE304
:1009400092E00E94A30361E08DE392E00E94A30382
:1009500061E08FE392E00E94A3036FEF89E392E0EE
:100960000E948C036FEF8BE392E00E948C036FEF89
:100970008DE392E00E948C036FEF8FE392E00C9482
:100980008C0361E089E392E00E94A30362E08BE3C1
:1009900092E00E94A30361E08DE392E00E94A30332
:1009A00062E08FE392E00E94A3036FEF89E392E09D
:1009B0000E948C036FEF8BE392E00E948C036FEF39
:1009C0008DE392E00E948C036FEF8FE392E00C9432
:1009D0008C0365E089E392E00E94A30365E08BE36A
:1009E00092E00E94A30365E08DE392E00E94A303DE
:1009F00065E08FE392E00C94A303209137023091DD
:100A00003802DC0114964D915C9115972417350737
:100A100021F5E0913302F09134026D917C91309791
:100A200019F06115710599F46115710549F0232BD1
:100A3000B1F0FB01808190E09195819591090AC008
:100A4000309769F0232B59F0808190E003C0CF01EB
:100A50000E942F0D21E0892B19F020E001C021E038
:100A6000822F08950E94210DFC01808191810C94B8
:100A7000D20BEF92FF920F931F93CF93DF93EC0172
:100A80007B018A0188819981009729F02A813B8125
:100A900024173507F8F4B8016F5F7F4F0E945B0C95
:100AA000009759F0998388831B830A832C813D81A9
:100AB000232B81F4FC0110820DC08881998100975D
:100AC00011F00E94D20B198218821D821C821B8297
:100AD0001A8207C01D830C83B701888199810E9407
:100AE000380DCE01DF91CF911F910F91FF90EF90C4
:100AF0000895CF93DF93EC01FB0186179707B1F0C0
:100B0000608171816115710529F0448155810E94D0
:100B100039050CC088819981009711F00E94D20B91
:100B2000198218821D821C821B821A82CE01DF91DB
:100B3000CF910895FC0111821082138212821582D6
:100B400014826115710551F0FB0101900020E9F755
:100B50003197AF01461B570B0C94390508950F933D
:100B60001F9360E080E10E94630183E090E00197C1
:100B7000F1F761E080E10E9463018FE090E001976E
:100B8000F1F760E080E10E946301EBEAF0E064913C
:100B9000E7E9F0E0E491F0E0EE0FFF1FE458FF4FCB
:100BA0008591949100E412E42FE030E0462F0E94FA
:100BB0005707611571058105910549F0DC01CB01ED
:100BC0000196A11DB11DBC01CD019F7003C060E065
:100BD00070E0CB012AE330E040E050E00E948E0A52
:100BE000C9011F910F9108951F920F920FB60F9296
:100BF00011242F933F938F939F93AF93BF93809133
:100C00005E0190915F01A0916001B091610130910E
:100C10005D0123E0230F2D3720F40196A11DB11DA6
:100C200005C026E8230F0296A11DB11D20935D018A
:100C300080935E0190935F01A0936001B093610186
:100C40008091620190916301A0916401B09165016E
:100C50000196A11DB11D8093620190936301A09341
:100C60006401B0936501BF91AF919F918F913F91C6
:100C70002F910F900FBE0F901F9018951F920F92FB
:100C80000FB60F9211242F933F934F935F936F935F
:100C90007F938F939F93AF93BF93EF93FF9387E6D9
:100CA00091E00E94F102FF91EF91BF91AF919F916E
:100CB0008F917F916F915F914F913F912F910F9005
:100CC0000FBE0F901F9018951F920F920FB60F92A4
:100CD00011242F938F939F93EF93FF93E0917701CC
:100CE000F09178018081E0917D01F0917E0182FD9B
:100CF00012C09081809180018F5F8F73209181015C
:100D0000821751F0E0918001F0E0E959FE4F958F94
:100D10008093800101C08081FF91EF919F918F911D
:100D20002F910F900FBE0F901F9018951F920F924A
:100D30000FB60F9211242F933F934F935F936F93AE
:100D40007F938F939F93AF93BF93EF93FF93809184
:100D50005C0187FF05C010928500109284001BC0C3
:100D600020915C01022E000C330B8091290290E04F
:100D70002817390784F480915C01082E000C990B28
:100D8000FC01EE0FFF1F8E0F9F1FFC01EB5FFD4F5D
:100D9000808186FD15C080915C018F5F80935C012E
:100DA00020915C01022E000C330B8091290290E00F
:100DB00028173907C4F480915C018C3064F113C0AA
:100DC00080915C01082E000C990BFC01EE0FFF1FB7
:100DD0008E0F9F1FFC01EB5FFD4F808160E08F73E2
:100DE0000E946301D8CF8091840090918500049681
:100DF00080349C4918F480E49CE905C0809184000B
:100E000090918500049690938900809388008FEFDD
:100E100080935C013BC020918400309185008091DB
:100E20005C01082E000C990BFC01EE0FFF1F8E0FCA
:100E30009F1FFC01EB5FFD4F81819281820F931F09
:100E4000909389008093880080915C01082E000CAB
:100E5000990BFC01EE0FFF1F8E0F9F1FFC01EB5F34
:100E6000FD4F808186FF12C080915C01082E000C2E
:100E7000990BFC01EE0FFF1F8E0F9F1FFC01EB5F14
:100E8000FD4F808161E08F730E946301FF91EF91BC
:100E9000BF91AF919F918F917F916F915F914F9192
:100EA0003F912F910F900FBE0F901F901895CF92EA
:100EB000DF92EF92FF920F931F93E82FF92F05C057
:100EC000015011092109310961F19081962394178C
:100ED000B9F305C0015011092109310911F19081BF
:100EE00096239413F7CFC12CD12CE12CF12C0AC0FE
:100EF0008FEFC81AD80AE80AF80A0C151D052E0546
:100F00003F0579F080818623841791F36C2D7D2D28
:100F10008E2D9F2D1F910F91FF90EF90DF90CF901E
:100F2000089560E070E080E090E01F910F91FF90E5
:100F3000EF90DF90CF90089510926A0110926901AE
:100F400088EE93E0A0E0B0E080936B0190936C0199
:100F5000A0936D01B0936E018AE091E090936801D7
:100F60008093670185EC90E0909374018093730106
:100F700084EC90E0909376018093750180EC90E092
:100F8000909378018093770181EC90E090937A01BF
:100F90008093790182EC90E090937C0180937B01B7
:100FA00086EC90E090937E0180937D011092800109
:100FB000109281011092820110928301109204021A
:100FC00068E171E085E692E00E949A0566E271E0D0
:100FD0008FE592E00E949A0569E371E089E592E06D
:100FE0000E949A0564E471E083E592E00E949A050C
:100FF0006CE471E08DE492E00E949A0561E571E095
:1010000087E492E00E949A0567E571E081E492E04E
:101010000E949A0563E089E392E00E94FB0164E08C
:101020008BE392E00E94FB0161E08DE392E00E947D
:10103000FB0162E08FE392E00E94FB011092340218
:10104000109233021092360210923502109238023A
:101050001092370265E672E083E392E00E94790520
:1010600010922E0210922D021092300210922F0236
:10107000109232021092310263E572E08DE292E04A
:101080000E947905809129028C30A0F491E0980F9C
:101090009093290280932A0290E0FC01EE0FFF1F3B
:1010A0008E0F9F1FFC01EB5FFD4F88EB9BE092834F
:1010B000818308958FEF80932A020895789484B5F0
:1010C000826084BD84B5816084BD85B5826085BD44
:1010D00085B5816085BD80916E00816080936E00D2
:1010E00010928100809181008260809381008091C4
:1010F0008100816080938100809180008160809375
:1011000080008091B10084608093B1008091B00034
:1011100081608093B00080917A00846080937A002F
:1011200080917A00826080937A0080917A00816059
:1011300080937A0080917A00806880937A00109280
:10114000C10062E08EE00E94BF0162E08FE00E9479
:10115000BF0162E08DE00E94BF0161E080E10E947A
:10116000BF0160E081E10E94BF0180912A028C30C2
:1011700008F051C061E08AE00E94BF0180912A021C
:10118000E82FF0E09F01220F331FE20FF31FEB5F08
:10119000FD4F9081907C9A60908310922B02109268
:1011A0002C026CE00E94280B2CE0829FB0011124DD
:1011B00040E050E09B01240F351FF901EE0FFF1FA7
:1011C0002E0F3F1FF901EB5FFD4F908196FD16C07A
:1011D0004F5F5F4F4C30510569F781110FC010927E
:1011E000800082E08093810010928500109284003C
:1011F000B19A80916F00826080936F00E0912A0223
:10120000F0E0CF01880F991FE80FF91FEB5FFD4F4A
:10121000808180648083E0917701F091780182E0A1
:101220008083E0917301F09174011082E091750167
:10123000F091760180E1808310927F01E0917B0143
:10124000F0917C0186E08083E0917901F0917A0150
:10125000808180618083E0917901F0917A018081C1
:1012600088608083E0917901F0917A0180818068C3
:101270008083E0917901F0917A0180818F7D808374
:1012800085E692E00E94FD04882309F46AC00E946A
:10129000AF05889728F40E94E90469E572E092C0DE
:1012A0008EE00E943A015C018FE00E943A017C01CD
:1012B0008DE00E943A016C018AE590E00E948D0069
:1012C00081E0E816F10439F463E572E08DE292E022
:1012D0000E947905D1C091E0A916B10449F5EF2823
:1012E00009F0F5C06DE472E08DE292E00E947905AC
:1012F00062E089E392E00E94A30361E08BE392E065
:101300000E94A30362E08DE392E00E94A30361E0E8
:101310008FE392E00E94A3036FEF89E392E00E94C3
:101320008C036FEF8BE392E00E948C036FEFC6C0DB
:1013300021E0C216D10461F4EF2809F0C8C067E4C7
:1013400072E08DE292E00E9479050E94C104BFC064
:10135000AB2809F0BCC0CD2809F0B9C00E94E9044F
:10136000B6C089E592E00E94FD04882371F10E94D5
:10137000C1040E9457024B015C018CE2C82EDD249F
:10138000D394E12CF12C0E945702DC01CB01881987
:101390009909AA09BB09883E9340A105B10598F3B4
:1013A00081E0C81AD108E108F10898EE890E93E0AF
:1013B000991EA11CB11CC114D104E104F10419F758
:1013C0006FE572E083E392E024C08FE592E00E9433
:1013D000FD04882309F47BC08EE00E943A016C0171
:1013E0008FE00E943A017C018DE00E943A01CA948C
:1013F000CD2829F0EA94EF2811F0019769F465E609
:1014000072E083E392E00E9479056DE472E08DE280
:1014100092E00E9479055BC084EB90E00E948D0011
:101420000E94AF058F31910528F561E089E392E0D4
:101430000E94A30361E08BE392E00E94A30361E0BA
:101440008DE392E00E94A30361E08FE392E00E94AB
:10145000A3036FEF89E392E00E948C036EE18BE3BC
:1014600092E00E948C036FEF8DE392E00E948C0368
:101470006EE129C0CC9718F40E94990428C061E05D
:1014800089E392E00E94A30361E08BE392E00E9473
:10149000A30361E08DE392E00E94A30361E08FE388
:1014A00092E00E94A3036EE189E392E00E948C0324
:1014B0006FEF8BE392E00E948C036EE18DE392E08C
:1014C0000E948C036FEF8FE392E00E948C030E94D6
:1014D0008203D6CE8DE292E00E94340583E392E04F
:1014E0000E94340581E492E00E94340587E492E092
:1014F0000E9434058DE492E00E94340583E592E079
:101500000E94340589E592E00E9434058FE592E05F
:101510000E94340585E692E00C943405052E97FB75
:101520001EF400940E94A50A57FD07D00E94F70AF6
:1015300007FC03D04EF40C94A50A509540953095C5
:1015400021953F4F4F4F5F4F08959095809570952F
:1015500061957F4F8F4F9F4F08950E94190BA59F54
:10156000900DB49F900DA49F800D911D112408959E
:10157000B7FF0C94AD0A0E94AD0A821B930B08952D
:101580002F923F924F925F926F927F928F929F9293
:10159000AF92BF92CF92DF92EF92FF920F931F9381
:1015A000CF93DF93CDB7DEB7CA1BDB0B0FB6F89432
:1015B000DEBF0FBECDBF09942A88398848885F8472
:1015C0006E847D848C849B84AA84B984C884DF80E3
:1015D000EE80FD800C811B81AA81B981CE0FD11DC7
:1015E0000FB6F894DEBF0FBECDBFED010895A1E2A6
:1015F0001A2EAA1BBB1BFD010DC0AA1FBB1FEE1F8D
:10160000FF1FA217B307E407F50720F0A21BB30BD7
:10161000E40BF50B661F771F881F991F1A9469F753
:1016200060957095809590959B01AC01BD01CF01AF
:101630000895A29FB001B39FC001A39F700D811DAB
:101640001124911DB29F700D811D1124911D0895CB
:10165000991B79E004C0991F961708F0961B881F04
:101660007A95C9F780950895EE0FFF1F0590F491C4
:10167000E02D09940F931F93CF93DF938230910550
:1016800010F482E090E0E0916D02F0916E0220E0B3
:1016900030E0A0E0B0E0309719F140815181028143
:1016A000138148175907C8F08417950769F41097F4
:1016B00031F012960C93129713961C9327C0009347
:1016C0006D0210936E0222C02115310519F04217E8
:1016D000530718F49A01BD01EF01DF01F801DBCFD8
:1016E00021153105F9F0281B390B2430310580F420
:1016F0008A819B816115710521F0FB0193838283AF
:1017000004C090936E0280936D02FE01329644C035
:10171000FE01E20FF31F8193919322503109398327
:1017200028833AC020916B0230916C02232B41F444
:10173000209102013091030130936C0220936B02DF
:1017400020910001309101012115310541F42DB79F
:101750003EB74091040150910501241B350BE091E7
:101760006B02F0916C02E217F307A0F42E1B3F0B03
:101770002817390778F0AC014E5F5F4F2417350703
:1017800048F04E0F5F1F50936C0240936B028193A1
:10179000919302C0E0E0F0E0CF01DF91CF911F9183
:1017A0000F910895CF93DF93009709F481C0FC0156
:1017B000329713821282A0916D02B0916E0210973F
:1017C00081F420813181820F931F20916B0230912F
:1017D0006C022817390751F5F0936C02E0936B0205
:1017E00067C0ED0120E030E0CE17DF0740F44A810A
:1017F0005B819E0141155105F1F0EA01F5CFD383DC
:10180000C28340815181840F951FC817D90759F4AD
:1018100088819981840F951F0296918380838A81A4
:101820009B81938382832115310529F4F0936E0205
:10183000E0936D023DC0E901FB83EA834991599130
:10184000C40FD51FEC17FD0761F480819181840FCF
:10185000951F0296E90199838883828193819B83F6
:101860008A83E0E0F0E012968D919C9113970097A7
:1018700019F0FD01DC01F7CF8D919C9111979D012D
:101880002E5F3F4F820F931F20916B0230916C02AD
:101890002817390769F4309729F410926E021092D4
:1018A0006D0202C013821282B0936C02A0936B028D
:1018B000DF91CF910895A0E0B0E0E1E6FCE00C9468
:1018C000C40AEC01009721F4CB010E943A0BB4C08A
:1018D000FC01E60FF71F9C0122503109E217F307C4
:1018E00008F4A8C0D9010D911C911197061717078C
:1018F000B0F00530110508F49BC0C80104978617A5
:10190000970708F495C002501109061B170B0193A5
:1019100011936D937C93CF010E94D20B89C05B0120
:10192000A01AB10A4C01800E911EA0916D02B091D7
:101930006E02612C712CE12CF12C109709F446C039
:101940008D919C911197A815B905B1F56C0142E0F4
:10195000C40ED11CCA14DB0478F14C018A189B0810
:10196000640142E0C40ED11C1296BC9012971396EB
:10197000AC91B5E0CB16D10440F0B282A383918242
:101980008082D9016D937C9309C00E5F1F4F800F39
:10199000911FF90191838083EB2DFA2FE114F1045B
:1019A00031F0D7011396FC93EE93129741C0F09358
:1019B0006E02E0936D023CC06816790608F43C01A3
:1019C0007D0112960D90BC91A02DB7CF80916B0236
:1019D00090916C0288169906E1F466167706C8F4B1
:1019E0008091000190910101009741F48DB79EB75D
:1019F0004091040150910501841B950BE817F907EC
:101A0000C8F4F0936C02E0936B02F9017183608378
:101A10000FC0CB010E943A0B7C01009759F0A8013E
:101A2000BE010E94260DCE010E94D20BC70104C048
:101A3000CE0102C080E090E0CDB7DEB7EEE00C94BE
:101A4000E00A81E090E0F8940C943F0DFB01DC018A
:101A500002C001900D9241505040D8F70895FB010B
:101A6000DC018D91019080190110D9F3990B089533
:101A7000FB01DC0101900D920020E1F7089510E0D8
:101A8000C2E6D0E004C0FE010E94340B2196C336AA
:081A9000D107C9F7F894FFCF5C
:101A980000006F0280000000000013037C02AA020D
:101AA8006003DB02B902CD024C494E455F545241F6
:101AB800434B494E47004F42535441434C455F41C5
:101AC800564F4944414E43450052494748545F5494
:101AD80055524E00464F5257415244004C454654C9
:0C1AE8000052494748540053544F50002E
:00000001FF
