:100000000C9463000C948B000C948B000C948B006C
:100010000C948B000C948B000C948B000C948B0034
:100020000C948B000C948B000C948B000C942A077E
:100030000C948B000C948B000C948B000C948B0014
:100040000C9488060C948B000C94F8060C94D20641
:100050000C948B000C948B000C948B000C948B00F4
:100060000C948B000C948B000000000024002700EF
:100070002A0000000000250028002B0000000000DE
:1000800023002600290004040404040404040202DA
:100090000202020203030303030301020408102007
:1000A0004080010204081020010204081020000012
:1000B0000008000201000003040700000000000027
:1000C00000003008160B11241FBECFEFD8E0DEBFB2
:1000D000CDBF11E0A0E0B1E0E8EEFBE102C0059089
:1000E0000D92A038B107D9F722E0A0E8B1E001C035
:1000F0001D92AD39B207E1F710E0C2E6D0E004C0CE
:100100002197FE010E94DC0BC136D107C9F70E947E
:10011000EC080C94E70D0C940000FC018081823007
:1001200069F018F4813031F00895833059F084304B
:1001300061F008958FEF8093B30008958FEF80935F
:10014000B40008958FEF87BD08958FEF88BD08959F
:10015000CF92DF92EF92FF92DC01A03282E0B807EB
:100160000CF03EC0B7FD06C0A53BB1052CF0A4EBDA
:10017000B0E002C0A0E0B0E080915F0228E830E08B
:100180006901C81AD10887FDD394CC0CDD1CCC0CB6
:10019000DD1C0D2C000CEE08FF088091600228E5A4
:1001A00032E0281B310987FD3395220F331F220FC0
:1001B000331FA901330F660B770B9A01AB012C1982
:1001C0003D094E095F090E94600B24EB30E040E0DE
:1001D00050E00E94360BC20ED31EE41EF51ED6015F
:1001E00090915E029C3098F580915F0248E850E063
:1001F000481B510987FD5395440F551F440F551F48
:10020000A417B5078CF08091600228E532E0281B26
:10021000310987FD3395220F331F220F331FAD01A4
:100220002A173B070CF4A90142505109440F551FEE
:100230002FB7F894892F90E0FC01EE0FFF1F8E0F6F
:100240009F1FFC01E75CFD4F528341832FBFFF904E
:10025000EF90DF90CF900895833081F028F48130C3
:1002600099F08230A1F008958730A9F08830B9F074
:100270008430D1F4809180008F7D03C08091800014
:100280008F7780938000089584B58F7702C084B5FE
:100290008F7D84BD08958091B0008F7703C08091D9
:1002A000B0008F7D8093B0000895CF93DF93282F07
:1002B00030E0F901E255FF4F8491F901E656FF4F16
:1002C000D491F901EA57FF4FC491CC2391F08111E9
:1002D0000E942C01EC2FF0E0EE0FFF1FE458FF4FBF
:1002E000A591B491EC91ED2381E090E021F480E0C0
:1002F00002C080E090E0DF91CF9108951F93CF93EB
:10030000DF93282F30E0F901E255FF4F8491F90186
:10031000E656FF4FD491F901EA57FF4FC491CC2321
:10032000C1F0162F81110E942C01EC2FF0E0EE0F8E
:10033000FF1FEE58FF4FA591B4919FB7F89411118C
:1003400004C08C91D095D82302C0EC91DE2BDC93B5
:100350009FBFDF91CF911F910895CF93DF9360E00E
:100360008CE00E947E0160E088E00E947E01C7E090
:10037000D0E060E084E00E947E0180919A0190E0EC
:100380000C2E02C0959587950A94E2F780FF02C073
:1003900061E001C060E088E00E947E0161E084E0ED
:1003A0000E947E01219728F761E08CE0DF91CF91D8
:1003B0000C947E01CF93DF9390E0FC01E656FF4F53
:1003C0002491FC01EA57FF4F8491882361F190E06A
:1003D000880F991FFC01E859FF4FC591D491FC018A
:1003E000EE58FF4FA591B491611109C09FB7F894E1
:1003F0008881209582238883EC912E230BC0623064
:1004000061F49FB7F8948881322F309583238883D5
:10041000EC912E2B2C939FBF06C08FB7F894E881E8
:100420002E2B28838FBFDF91CF910895CF93DF9339
:10043000C62FFC016083D1E0D18361E08CE00E9493
:10044000DA0161E087E00E94DA0161E088E00E9461
:10045000DA0161E084E00E94DA0110929A010E94C0
:10046000AD0160E087E00E947E01C230F1F080F4CF
:10047000C130A9F50E94AD018091B00083688093DE
:10048000B000C093B1001092B30061E08BE023C0D4
:10049000C330C9F0C43019F50E94AD0184B5836240
:1004A00084BD18BC61E085E016C00E94AD0180915A
:1004B000B00083628093B000D093B1001092B4007A
:1004C00061E083E008C00E94AD0184B5836884BD0B
:1004D00017BC61E086E0DF91CF910C94DA01DF91E7
:1004E000CF9108953FB7F89480919601909197012C
:1004F000A0919801B091990126B5A89B05C02F3F06
:1005000019F00196A11DB11D3FBFBA2FA92F982F39
:100510008827820F911DA11DB11DBC01CD0142E0B4
:10052000660F771F881F991F4A95D1F708958F92FC
:100530009F92AF92BF92CF92DF92EF92FF926B01A8
:100540007C010E9472024B015C01C114D104E104E0
:10055000F104F1F00E947202DC01CB0188199909C3
:10056000AA09BB09883E9340A105B10570F321E0BB
:10057000C21AD108E108F10888EE880E83E0981EBF
:10058000A11CB11CC114D104E104F10419F7DDCFA1
:10059000FF90EF90DF90CF90BF90AF909F908F90A3
:1005A0000895CF92DF92EF92FF920F931F93CF9314
:1005B000DF936C017A018B01C0E0D0E0CE15DF053E
:1005C00081F0D8016D918D01D601ED91FC910190E2
:1005D000F081E02DC6010995892B11F02196EECF0F
:1005E0007E01C701DF91CF911F910F91FF90EF9096
:1005F000DF90CF900895089580E090E00895FC0189
:10060000538D448D252F30E0842F90E0821B930B77
:10061000541710F0CF96089501970895FC01918D1D
:10062000828D981761F0828DDF01A80FB11D5D9654
:100630008C91928D9F5F9F73928F90E008958FEFC2
:100640009FEF0895FC01918D828D981731F0828D76
:10065000E80FF11D858D90E008958FEF9FEF0895CD
:10066000FC01918D228D892F90E0805C9F4F821B31
:1006700091098F73992708958BE991E00E943003C7
:1006800021E0892B09F420E0822F0895FC01848D5C
:10069000DF01A80FB11DA35ABF4F2C91848D90E0AC
:1006A00001968F739927848FA689B7892C93A08987
:1006B000B1898C91837080648C93938D848D981311
:1006C00006C00288F389E02D80818F7D80830895A4
:1006D000EF92FF920F931F93CF93DF93EC0181E092
:1006E000888F9B8D8C8D981305C0E889F98980814E
:1006F00085FD26C0F62E0B8D10E00F5F1F4F0F7388
:100700001127E02E8C8DE8120CC00FB607FCFACF33
:10071000E889F989808185FFF5CFCE010E944603E3
:10072000F1CF8B8DFE01E80FF11DE35AFF4FF082F0
:100730009FB7F8940B8FEA89FB89808180620AC099
:100740009FB7F894EE89FF896083E889F9898081F1
:100750008370806480839FBF81E090E0DF91CF91C0
:100760001F910F91FF90EF900895CF93DF93EC01CD
:10077000888D8823C9F0EA89FB89808185FD05C0C1
:10078000A889B9898C9186FD0FC00FB607FCF5CFFB
:10079000808185FFF2CFA889B9898C9185FFEDCF43
:1007A000CE010E944603E7CFDF91CF91089580E00C
:1007B00090E0892B29F00E943C0381110C940000E9
:1007C0000895FC018081823059F018F48130D9F00D
:1007D0000895833009F499C0843009F499C00895CC
:1007E000633009F464C028F4613051F0623051F193
:1007F0000895643009F466C0653009F468C008954E
:1008000044E021E009C0633009F495C008F062C0FB
:100810006130D9F443E022E081E090E0FC0102C0C5
:10082000EE0FFF1F2A95E2F79F01209530919A0164
:10083000232301C0880F4A95EAF7822B80939A01FF
:100840000C94AD0124E091E005C0623009F0ADC028
:1008500023E092E0835030919A01823088F461E085
:1008600070E0AB0101C0440F9A95EAF7409534233C
:1008700001C0660F2A95EAF7632B60939A01E0CFD7
:1008800041E050E0BA0101C0660F9A95EAF7632B88
:1008900001C0440F2A95EAF74095462340939A01F8
:1008A000CFCF813009F447C0823009F07FC08091FA
:1008B0009A018D7F8061C2CF813009F46DC0823092
:1008C00009F074C080919A018F7E8260B7CF24E0D6
:1008D00091E008C0643009F45FC0653009F066C07B
:1008E00023E092E041E050E0BA0102C0660F771FBA
:1008F0009A95E2F7CB0101C0440F2A95EAF7842BC1
:10090000809590919A01892399CF27E095E002C0C4
:1009100026E090E06330A1F4833029F480919A01BD
:100920008F7D80688BCF843009F0BBCF80919A0196
:100930008F7B816083CF80919A01877F84607ECF97
:100940006430C8F4613099F441E050E0BA0102C06B
:10095000660F771F9A95E2F7CB0190919A01892B48
:1009600001C0440F2A95EAF74095482397CF62309B
:1009700009F470CF08956430A1F4833029F4809194
:100980009A018F7780625ACF843009F095CF809199
:100990009A018E7F806452CF80919A018B7F88600C
:1009A0004DCF653009F49ECF08950895089561E014
:1009B0008DE692E00E94E10362E08FE692E00E9401
:1009C000E10361E081E792E00E94E10362E083E7F6
:1009D00092E00E94E1038DE692E00E948D008FE696
:1009E00092E00E948D0081E792E00E948D0083E7F3
:1009F00092E00C948D0062E08DE692E00E94E103AB
:100A000061E08FE692E00E94E10362E081E792E01C
:100A10000E94E10361E083E792E00E94E1038DE63A
:100A200092E00E948D008FE692E00E948D0081E7A7
:100A300092E00E948D0083E792E00C948D0065E0C7
:100A40008DE692E00E94E10365E08FE692E00E946D
:100A5000E10365E081E792E00E94E10365E083E75E
:100A600092E00C94E103009769F0FC0101900020F2
:100A7000E9F73197AF01481B590BBC018BE991E0B5
:100A80000C94D10280E090E008958F929F92AF92F3
:100A9000BF920F931F93CF93DF93CDB7DEB7A1978C
:100AA0000FB6F894DEBF0FBECDBF19A2423008F4D6
:100AB0004AE08E010F5D1F4F842E912CA12CB12C8A
:100AC000A50194010E949F0BE62FB901CA010150B4
:100AD0001109EA3014F4E05D01C0E95CD801EC933F
:100AE000232B242B252B61F7C8010E943305A196E7
:100AF0000FB6F894DEBF0FBECDBFDF91CF911F912F
:100B00000F91BF90AF909F908F900895CF93DF93F8
:100B10000E943305EC0186E291E00E9433058C0FC0
:100B20009D1FDF91CF9108950E94C90DFC01248182
:100B30003581FB01448155812417350721F5FC01DE
:100B400080819181FB0160817181009719F06115AD
:100B50007105A1F46115710549F0232BB1F0FB017A
:100B6000808190E09195819591090AC0009769F084
:100B7000232B59F0FC01808190E002C00E94D70D28
:100B800021E0892B19F020E001C021E0822F089597
:100B9000FC01808191810C947A0CEF92FF920F936B
:100BA0001F93CF93DF93EC017B018A0188819981A8
:100BB000009729F02A813B8124173507F8F4B80102
:100BC0006F5F7F4F0E94030D009759F099838883D0
:100BD0001B830A832C813D81232B81F4FC0110822D
:100BE0000DC088819981009711F00E947A0C1982BA
:100BF00018821D821C821B821A8207C01D830C83EF
:100C0000B701888199810E94E00DCE01DF91CF91DB
:100C10001F910F91FF90EF900895CF93DF93EC0118
:100C2000FB0186179707B1F060817181611571052D
:100C300029F0448155810E94CD050CC0888199819D
:100C4000009711F00E947A0C198218821D821C8272
:100C50001B821A82CE01DF91CF910895FC0111828F
:100C6000108213821282158214826115710551F06F
:100C7000FB0101900020E9F73197AF01461B570BAC
:100C80000C94CD0508950F931F9360E080E10E94BE
:100C90007E0183E090E00197F1F761E080E10E943E
:100CA0007E018FE090E00197F1F760E080E10E9423
:100CB0007E01EBEAF0E06491E7E9F0E0E491F0E036
:100CC000EE0FFF1FE458FF4F8591949100E412E46A
:100CD0002FE030E0462F0E94EB076115710581057A
:100CE000910549F0DC01CB010196A11DB11DBC01AC
:100CF000CD019F7003C060E070E0CB012AE330E0DB
:100D000040E050E00E94360BC9011F910F910895F9
:100D10001F920F920FB60F9211242F933F938F9330
:100D20009F93AF93BF938091920190919301A09173
:100D30009401B09195013091910123E0230F2D375B
:100D400020F40196A11DB11D05C026E8230F0296CF
:100D5000A11DB11D20939101809392019093930165
:100D6000A0939401B0939501809196019091970181
:100D7000A0919801B09199010196A11DB11D809398
:100D8000960190939701A0939801B0939901BF9118
:100D9000AF919F918F913F912F910F900FBE0F9028
:100DA0001F9018951F920F920FB60F9211242F9338
:100DB0003F934F935F936F937F938F939F93AF93E3
:100DC000BF93EF93FF938BE991E00E944603FF915D
:100DD000EF91BF91AF919F918F917F916F915F91B3
:100DE0004F913F912F910F900FBE0F901F9018952C
:100DF0001F920F920FB60F9211242F938F939F93F0
:100E0000EF93FF93E091AB01F091AC018081E09111
:100E1000B101F091B20182FD12C090818091B401C4
:100E20008F5F8F732091B501821751F0E091B4016B
:100E3000F0E0E556FE4F958F8093B40101C08081AC
:100E4000FF91EF919F918F912F910F900FBE0F9077
:100E50001F9018951F920F920FB60F9211242F9387
:100E60003F934F935F936F937F938F939F93AF9332
:100E7000BF93EF93FF938091800187FF05C010928D
:100E80008500109284001BC020918001022E000C6E
:100E9000330B80915D0290E02817390784F480912C
:100EA0008001082E000C990BFC01EE0FFF1F8E0F26
:100EB0009F1FFC01E75CFD4F808186FD15C080917E
:100EC00080018F5F8093800120918001022E000CB1
:100ED000330B80915D0290E028173907C4F48091AC
:100EE00080018C3064F113C080918001082E000CC9
:100EF000990BFC01EE0FFF1F8E0F9F1FFC01E75C9B
:100F0000FD4F808160E08F730E947E01D8CF809179
:100F1000840090918500049680349C4918F480E404
:100F20009CE905C08091840090918500049690937F
:100F30008900809388008FEF809380013BC02091CF
:100F400084003091850080918001082E000C990B5F
:100F5000FC01EE0FFF1F8E0F9F1FFC01E75CFD4F92
:100F600081819281820F931F9093890080938800E2
:100F700080918001082E000C990BFC01EE0FFF1FE1
:100F80008E0F9F1FFC01E75CFD4F808186FF12C022
:100F900080918001082E000C990BFC01EE0FFF1FC1
:100FA0008E0F9F1FFC01E75CFD4F808161E08F7316
:100FB0000E947E01FF91EF91BF91AF919F918F9120
:100FC0007F916F915F914F913F912F910F900FBE45
:100FD0000F901F901895CF92DF92EF92FF920F9390
:100FE0001F93E82FF92F05C001501109210931097C
:100FF00061F1908196239417B9F305C0015011094E
:101000002109310911F1908196239413F7CFC12C56
:10101000D12CE12CF12C0AC08FEFC81AD80AE80AAB
:10102000F80A0C151D052E053F0579F080818623F1
:10103000841791F36C2D7D2D8E2D9F2D1F910F9177
:10104000FF90EF90DF90CF90089560E070E080E037
:1010500090E01F910F91FF90EF90DF90CF90089557
:1010600010929E0110929D0188EE93E0A0E0B0E006
:1010700080939F019093A001A093A101B093A2013E
:1010800088E191E090939C0180939B0185EC90E036
:101090009093A8018093A70184EC90E09093AA011B
:1010A0008093A90180EC90E09093AC018093AB0118
:1010B00081EC90E09093AE018093AD0182EC90E0E2
:1010C0009093B0018093AF0186EC90E09093B201D1
:1010D0008093B1011092B4011092B5011092B60143
:1010E0001092B7011092380269E271E083E992E050
:1010F0000E942E0667E371E08DE892E00E942E06C2
:101100006AE471E087E892E00E942E0662E571E0F1
:1011100081E892E00E942E0667E571E08BE792E09D
:101120000E942E066DE571E085E792E00E942E0692
:1011300063E08DE692E00E94160264E08FE692E0A2
:101140000E94160261E081E792E00E94160262E0CE
:1011500083E792E00E9416021092680210926702E2
:1011600010926A021092690210926C0210926B0245
:1011700063E972E087E692E00E940D061092620237
:101180001092610210926402109263021092660241
:101190001092650267E872E081E692E00E940D0617
:1011A00080915D028C30A0F491E0980F90935D02E5
:1011B00080935E0290E0FC01EE0FFF1F8E0F9F1FD9
:1011C000FC01E75CFD4F88EB9BE0928381830895EF
:1011D0008FEF80935E020895789484B5826084BD19
:1011E00084B5816084BD85B5826085BD85B581602B
:1011F00085BD80916E00816080936E0010928100A9
:101200008091810082608093810080918100816063
:101210008093810080918000816080938000809124
:10122000B10084608093B1008091B00081608093B0
:10123000B00080917A00846080937A0080917A0077
:10124000826080937A0080917A00816080937A0036
:1012500080917A00806880937A001092C10062E0E9
:101260008EE00E94DA0162E08FE00E94DA0162E023
:101270008DE00E94DA0161E080E10E94DA0160E025
:1012800081E10E94DA0180915E028C3008F051C049
:1012900061E08AE00E94DA0180915E02E82FF0E0CE
:1012A0009F01220F331FE20FF31FE75CFD4F908178
:1012B000907C9A60908310925F02109260026CE0C2
:1012C0000E94D00B9CE0899FB001112440E050E0C7
:1012D0009B01240F351FF901EE0FFF1F2E0F3F1F3B
:1012E000F901E75CFD4F908196FD16C04F5F5F4F9F
:1012F0004C30510569F781110FC01092800082E0D7
:10130000809381001092850010928400B19A8091A0
:101310006F00826080936F00E0915E02F0E0CF0189
:10132000880F991FE80FF91FE75CFD4F80818064EB
:101330008083E091AB01F091AC0182E08083E09189
:10134000A701F091A8011082E091A901F091AA01F2
:1013500080E180831092B301E091AF01F091B00180
:1013600086E08083E091AD01F091AE0180818061E3
:101370008083E091AD01F091AE018081886080832F
:10138000E091AD01F091AE01808180688083E091B1
:10139000AD01F091AE0180818F7D808363E972E0C1
:1013A00087E692E00E949605882309F491C00E9486
:1013B000430640970CF47FC08EE00E945501EC017B
:1013C0008FE00E9455017C018DE00E9455016C0167
:1013D0008AE590E00E94A80081E0E816F10459F542
:1013E00067E872E081E692E00E940D0661E08DE61A
:1013F00092E00E94E10361E08FE692E00E94E10347
:1014000061E081E792E00E94E10361E083E792E01E
:101410000E94E1038DE692E00E948D008FE692E04B
:101420000E948D0081E792E00E948D0083E792E0A8
:101430000E948D00F8C0C130D10551F4EF2809F0A9
:10144000F2C061E872E081E692E00E940D062DC0D4
:1014500091E0C916D10451F4EF2809F0E4C06BE71C
:1014600072E081E692E00E940D0622C0CD2B09F0C9
:10147000DAC0CD2809F0D7C067E872E081E692E0D3
:101480000E949605882349F065E772E081E692E0C4
:101490000E940D060E941F05C6C061E872E081E649
:1014A00092E00E949605882319F00E94FB04BBC0BD
:1014B0000E94D704B8C00E941F051092900110929C
:1014C0008F016DE872E087E692E00E940D06ABC0E6
:1014D0006DE872E087E692E00E949605882309F4A1
:1014E000A2C0E0908F01F090900187E0E816F1042F
:1014F00008F05AC00E941F0564E670E080E090E0AA
:101500000E949702F701EE0FFF1FEA5FFE4F8081F6
:1015100091810E94A80064E670E080E090E00E9463
:1015200097020E9443066C0180918F019091900177
:10153000880F991FFC01EF57FE4FD182C082FC013A
:10154000EA5FFE4F6081718180E090E04AE00E9496
:10155000450582E691E00E9433050D2C000CEE0853
:10156000FF08F7FE0EC06DE28BE991E00E94680370
:1015700066277727CB016C197D098E099F094AE000
:1015800003C04AE0C701B6010E94450587E291E029
:101590000E94330580918F01909190010196909364
:1015A000900180938F013FC0E1E8F1E08FEF9FEF62
:1015B00047EE53E020E030E06191719164177507C8
:1015C00010F4C901AB012F5F3F4F27303105A1F760
:1015D0008330910528F00397B1F486E691E00EC0C0
:1015E000880F991FFC01EF57FE4F80819181409732
:1015F00018F08BE791E009C08FE691E00E94860524
:101600000E94D70406C085E791E00E9486050E94EB
:10161000FB0464EF71E080E090E00E94970210927A
:10162000900110928F010E94D703B8CE81E692E01C
:101630000E94C80587E692E00E94C80585E792E00F
:101640000E94C8058BE792E00E94C80581E892E0FD
:101650000E94C80587E892E00E94C8058DE892E0E4
:101660000E94C80583E992E00C94C805052E97FBFB
:101670001EF400940E944D0B57FD07D00E949F0B53
:1016800007FC03D04EF40C944D0B509540953095CB
:1016900021953F4F4F4F5F4F0895909580957095DE
:1016A00061957F4F8F4F9F4F08950E94C10BA59F5B
:1016B000900DB49F900DA49F800D911D112408954D
:1016C000B7FF0C94550B0E94550B821B930B08958A
:1016D0002F923F924F925F926F927F928F929F9242
:1016E000AF92BF92CF92DF92EF92FF920F931F9330
:1016F000CF93DF93CDB7DEB7CA1BDB0B0FB6F894E1
:10170000DEBF0FBECDBF09942A88398848885F8420
:101710006E847D848C849B84AA84B984C884DF8091
:10172000EE80FD800C811B81AA81B981CE0FD11D75
:101730000FB6F894DEBF0FBECDBFED010895A1E254
:101740001A2EAA1BBB1BFD010DC0AA1FBB1FEE1F3B
:10175000FF1FA217B307E407F50720F0A21BB30B86
:10176000E40BF50B661F771F881F991F1A9469F702
:1017700060957095809590959B01AC01BD01CF015E
:101780000895A29FB001B39FC001A39F700D811D5A
:101790001124911DB29F700D811D1124911D08957A
:1017A000991B79E004C0991F961708F0961B881FB3
:1017B0007A95C9F780950895EE0FFF1F0590F49173
:1017C000E02D09940F931F93CF93DF9382309105FF
:1017D00010F482E090E0E0919B02F0919C0220E006
:1017E00030E0A0E0B0E0309719F1408151810281F2
:1017F000138148175907C8F08417950769F41097A3
:1018000031F012960C93129713961C9327C00093F5
:101810009B0210939C0222C02115310519F042173A
:10182000530718F49A01BD01EF01DF01F801DBCF86
:1018300021153105F9F0281B390B2430310580F4CE
:101840008A819B816115710521F0FB01938382835D
:1018500004C090939C0280939B02FE01329644C088
:10186000FE01E20FF31F81939193225031093983D6
:1018700028833AC02091990230919A02232B41F497
:10188000209102013091030130939A022093990232
:1018900020910001309101012115310541F42DB74E
:1018A0003EB74091040150910501241B350BE09196
:1018B0009902F0919A02E217F307A0F42E1B3F0B56
:1018C0002817390778F0AC014E5F5F4F24173507B2
:1018D00048F04E0F5F1F50939A02409399028193F4
:1018E000919302C0E0E0F0E0CF01DF91CF911F9132
:1018F0000F910895CF93DF93009709F481C0FC0105
:10190000329713821282A0919B02B0919C02109791
:1019100081F420813181820F931F209199023091AF
:101920009A022817390751F5F0939A02E093990229
:1019300067C0ED0120E030E0CE17DF0740F44A81B8
:101940005B819E0141155105F1F0EA01F5CFD3838A
:10195000C28340815181840F951FC817D90759F45C
:1019600088819981840F951F0296918380838A8153
:101970009B81938382832115310529F4F0939C0286
:10198000E0939B023DC0E901FB83EA8349915991B1
:10199000C40FD51FEC17FD0761F480819181840F7E
:1019A000951F0296E90199838883828193819B83A5
:1019B0008A83E0E0F0E012968D919C911397009756
:1019C00019F0FD01DC01F7CF8D919C9111979D01DC
:1019D0002E5F3F4F820F931F2091990230919A0200
:1019E0002817390769F4309729F410929C02109255
:1019F0009B0202C013821282B0939A02A0939902B2
:101A0000DF91CF910895A0E0B0E0E9E0FDE00C9413
:101A10006C0BEC01009721F4CB010E94E20BB4C0E7
:101A2000FC01E60FF71F9C0122503109E217F30772
:101A300008F4A8C0D9010D911C911197061717073A
:101A4000B0F00530110508F49BC0C8010497861753
:101A5000970708F495C002501109061B170B019354
:101A600011936D937C93CF010E947A0C89C05B0126
:101A7000A01AB10A4C01800E911EA0919B02B09158
:101A80009C02612C712CE12CF12C109709F446C0BA
:101A90008D919C911197A815B905B1F56C0142E0A3
:101AA000C40ED11CCA14DB0478F14C018A189B08BF
:101AB000640142E0C40ED11C1296BC90129713969A
:101AC000AC91B5E0CB16D10440F0B282A3839182F1
:101AD0008082D9016D937C9309C00E5F1F4F800FE8
:101AE000911FF90191838083EB2DFA2FE114F1040A
:101AF00031F0D7011396FC93EE93129741C0F09307
:101B00009C02E0939B023CC06816790608F43C01F5
:101B10007D0112960D90BC91A02DB7CF80919902B6
:101B200090919A0288169906E1F466167706C8F431
:101B30008091000190910101009741F48DB79EB70B
:101B40004091040150910501841B950BE817F9079A
:101B5000C8F4F0939A02E0939902F90171836083CB
:101B60000FC0CB010E94E20B7C01009759F0A80145
:101B7000BE010E94CE0DCE010E947A0CC70104C0A6
:101B8000CE0102C080E090E0CDB7DEB7EEE00C946D
:101B9000880B81E090E0F8940C94E70DFB01DC01E8
:101BA00002C001900D9241505040D8F70895FB01BA
:101BB000DC018D91019080190110D9F3990B0895E2
:101BC000FB01DC0101900D920020E1F7089510E087
:101BD000C2E6D0E004C0FE010E94DC0B2196C336B1
:081BE000D107C9F7F894FFCF0B
:101BE80000009D028000B400960078005A003C0076
:101BF8001E000000000000006803D102FF02B503C8
:101C080030030E0322030D0A004C494E455F54521F
:101C180041434B494E47004F42535441434C455F63
:101C280041564F4944414E434500464F5257415251
:101C380044004C4546540052494748540053544FB9
:101C48005000202D2000666F72776172642C20721C
:101C580069676874007269676874206C65667400E7
:00000001FF
